:020000040800F2
:100000000000012061020008650200086702000884
:100010007D0200087F020008950200080000000031
:10002000000000000000000000000000AB0200081B
:10003000AD02000800000000AF020008B102000895
:10004000C5020008C5020008C5020008C502000874
:10005000C5020008C5020008C5020008C502000864
:10006000C5020008C5020008C5020008C502000854
:10007000C5020008C5020008C5020008C502000844
:10008000C5020008C5020008C50200080000000003
:10009000000000000000000000000000C502000891
:1000A000C5020008C5020008C5020008C502000814
:1000B000C5020008C5020008C5020008C502000804
:1000C000C5020008C5020008C5020008C5020008F4
:1000D000C5020008C5020008C502000800000000B3
:1000E000C5020008C5020008C502000800000000A3
:1000F000000000000000000000000000C502000831
:1001000000000000C5020008C5020008C502000882
:1001100000000000000000000000000000000000DF
:10012000C5020008C5020008C5020008C502000893
:10013000C5020008000000000000000000000000F0
:10014000000000000000000000000000C5020008E0
:10015000C5020008C5020008C5020008C502000863
:10016000C5020008C50200080000000000000000F1
:10017000000000000000000000000000000000007F
:1001800000000000C50200080000000000000000A0
:10019000C502000807B500F0B7F8274B274883428F
:1001A00026D3274A274900208A422CD300F0B8F8EA
:1001B000254D264C01A9684600F09EF8641BA4104A
:1001C0000026B44228DC224D224C641BA4100026D9
:1001D000B44226DCDDE9000100F0F8F81E4E1F4CA9
:1001E000A41B0546A410002C20DC284600F080F853
:1001F000D3E900129C680C33891A9442CFD9555820
:1002000015600432F9E752F8083B52F8044C9C425E
:10021000CAD943F8040BFAE755F8043B984701366E
:10022000CFE755F8043B98470136D1E7013C56F833
:1002300024309847D7E700BFC8020008E002000852
:10024000E0020008F0020008F0020008F0020008D6
:10025000F0020008F0020008F0020008F0020008B6
:1002600014480047FEE71EF0040F0CBFEFF30880B0
:10027000EFF309807146104A1047FEE7FEE71EF0D3
:10028000040F0CBFEFF30880EFF3098071460B4AAF
:100290001047FEE71EF0040F0CBFEFF30880EFF3EA
:1002A00009807146064A1047FEE7FEE7FEE7FEE7D3
:1002B00070470000950100087B02000893020008C7
:0602C000A9020008FEE7A0
:1002C80088090008000000201C0000208809000898
:1002D80000000010000000101C0000202400002076
:0802E8000000001000000010EE
:1002F00008B500F017F8000001230360014B0B6004
:10030000704700BF0000002008B500F01DF8024B48
:10031000024A9A6008BD00BF00ED00E0000000083E
:1003200000F01AB8BFF34F8F0549064BCA6802F4B4
:10033000E0621343CB60BFF34F8F00BFFDE700BF08
:1003400000ED00E00400FA05024B4FF000629A60F5
:10035000704700BF00ED00E0174A1849936803F0AA
:100360000C03042B0DD0082B0DD0154B0B60124B3A
:10037000144A9B68C3F30313D25C0B68D3400B6031
:100380007047114BF2E75368506813F4800F00F088
:100390003F00536814BF0C4A094AB2FBF0F0064A0A
:1003A0005268C2F30142C3F388130132434352003F
:1003B000B3FBF2F3DAE700BF003802400800002088
:1003C0000024F4007809000800127A0008B500F053
:1003D00013F801220521412000F01CFA044C054DC0
:1003E0002B78C3F3011354F823309847F8E700BF84
:1003F0000C0000201800002010B500F035F9402056
:1004000000F03CF9002000F039F900F07FFA0022FA
:1004100011460123412000F065F90123194600220D
:10042000412000F05FF9002301220221412000F069
:1004300059F9002301220321412000F053F9002340
:1004400001220421412000F04DF9BDE810400023B5
:1004500001220521412000F045B9000070B5014698
:100460000546412000F034FAB8B91E2000F068FAC1
:1004700000F07CFA04460028FAD10B4E3378DB07F3
:1004800009D42946412000F023FA20B9337843F0FB
:10049000010333700124204670BD034B1A786FF3BB
:1004A00000021A700024F6E71800002038B5214C2D
:1004B000207810F002001DD1FFF7D0FF68B3237839
:1004C00023F0060343F0060301220221412023709A
:1004D00000F0A0F94FF4FA7000F032FA0122032183
:1004E000412000F097F9BDE8384001220421412065
:1004F00000F090B900F03AFA78B1227812F0C00515
:100500000CD140F2DC5000F01BFA2A4603214120B6
:1005100000F080F923784033237038BD0022042195
:10052000412000F077F9237803F00F0343F0200314
:10053000F2E700BF1800002038B5194C257815F0F7
:1005400004051ED10120FFF789FF38B3237823F07B
:10055000060343F006032A4602214120237000F0DF
:1005600059F92A460321412000F054F94FF47A70DA
:1005700000F0E6F9BDE8384001220421412000F0F6
:1005800049B900F0F3F948B100220421412000F0FC
:1005900041F92378022262F30513237038BD00BFAE
:1005A0001800002010B50120FFF758FF2D4C58B15E
:1005B00001220421412000F02DF9237823F03E038D
:1005C00043F0120323702CE023789A072AD51B07E7
:1005D00007D442F2107000F0B3F9237843F0080317
:1005E000F0E7FFF73BFFC0B100220221412000F0FD
:1005F00011F900220421412000F00CF94FF4FA70A7
:1006000000F09EF901220321412000F003F9237834
:1006100023F0060343F00403D4E700F0A7F9002811
:10062000E2D110BD00F0A2F90028FAD0237803F03F
:10063000C002C02A12D04FF4FA7000F081F923787A
:1006400083F00802C2F3C00262F3C3030321412016
:10065000237000F0DFF823784033B3E703F00F0393
:10066000B0E700BF18000020034AD2F8003843F07A
:100670000103C2F8003870470030024000F01F0349
:10068000400903282AD8DFE800F0020C162014499C
:10069000012202FA03F3D1F830281A43C1F83028B6
:1006A00070470F49012202FA03F3D1F834281A43A4
:1006B000C1F8342870470A49012202FA03F3D1F83D
:1006C00040281A43C1F8402870470549012202FA20
:1006D00003F3D1F844281A43C1F84428704700BFF7
:1006E000003002404138F0B5032819D8DFE800F0A7
:1006F0000221466B46484D00032606FA05F70668B8
:10070000FC4326EA070602FA05F73E43012A066083
:1007100007D144688A4024EA02048B4023434360A3
:10072000F0BD002AFCD1C268AB4022401343C36035
:10073000F6E737484D00032606FA05F7D0F80064BF
:10074000FC4326EA070602FA05F73E43012AC0F8F1
:10075000006409D1D0F804448A4024EA02048B40A2
:100760002343C0F80434DBE7002AD9D1D0F80C24A5
:10077000AB4022401343C0F80C34D1E724484D006D
:10078000032606FA05F7D0F80068FC4326EA0706B8
:1007900002FA05F73E43012AC0F8006809D1D0F8F3
:1007A00004488A4024EA02048B402343C0F80438FA
:1007B000B6E7002AB4D1D0F80C28AB40224013434E
:1007C000C0F80C38ACE712484F00032505FA07F6CD
:1007D000D0F8005CF44325EA060502FA07F6354333
:1007E000012AC0F8005C09D1D0F8044C8A4024EA00
:1007F00002048B402343C0F8043C91E7002A8FD1C8
:10080000D0F80C2CBB4022401343C0F80C3C87E7C7
:1008100000000240413810B5032814D8DFE800F08A
:1008200002152A3F294C20684B0020FA03F303F0FD
:100830000303012B48D160698B4020EA030302FACD
:1008400001F10B436361002010BD204CD4F800047B
:100850004B0020FA03F303F00303012B34D1D4F847
:1008600014048B4020EA030302FA01F10B43C4F89D
:100870001434E8E7154CD4F800084B0020FA03F3D1
:1008800003F00303012B1FD1D4F814088B4020EA96
:10089000030302FA01F10B43C4F81438D3E70B4CFD
:1008A000D4F8000C4B0020FA03F303F00303012BF0
:1008B0000AD1D4F8140C8B4020EA030302FA01F1A8
:1008C0001943C4F8141CBEE70120BDE70000024034
:1008D0004138032815D8DFE800F002080C100A4B55
:1008E0001869C84000F001007047074BD3F81004A6
:1008F000F7E7054BD3F81008F3E7034BD3F8100CD8
:10090000EFE70020704700BF000002404FF0804337
:100910001A7842F008021A7043F67F629A627047B2
:100920004FF080431A7842F004021A701A7D42F0A8
:1009300001021A751A786FF382021A70704700006C
:100940004FF0804108B5084B1860C862002048622B
:10095000FFF7E6FF0B7C60F300030B740B7843F0AA
:1009600001030B7008BD00BF200000204FF0804342
:10097000186900F00100704700000000000000004E
:08098000010203040607080947
:100988001C000020000000000024F400AD04000852
:0C09980039050008A505000804FFFFFF5A
:040000050800019559
:00000001FF
